{
  "contractName": "Vacination",
  "abi": [
    {
      "anonymous": false,
      "inputs": [
        {
          "indexed": false,
          "internalType": "uint256",
          "name": "citizenId",
          "type": "uint256"
        },
        {
          "indexed": false,
          "internalType": "string",
          "name": "vaccineName1",
          "type": "string"
        },
        {
          "indexed": false,
          "internalType": "string",
          "name": "dateGetVaccine1",
          "type": "string"
        },
        {
          "indexed": false,
          "internalType": "string",
          "name": "hospitalName1",
          "type": "string"
        },
        {
          "indexed": false,
          "internalType": "string",
          "name": "vaccineName2",
          "type": "string"
        },
        {
          "indexed": false,
          "internalType": "string",
          "name": "dateGetVaccine2",
          "type": "string"
        },
        {
          "indexed": false,
          "internalType": "string",
          "name": "hospitalName2",
          "type": "string"
        },
        {
          "indexed": false,
          "internalType": "address",
          "name": "sender",
          "type": "address"
        }
      ],
      "name": "AddedVaccine",
      "type": "event"
    },
    {
      "constant": false,
      "inputs": [
        {
          "internalType": "uint256",
          "name": "_citizenId",
          "type": "uint256"
        },
        {
          "internalType": "string",
          "name": "_firstName",
          "type": "string"
        },
        {
          "internalType": "string",
          "name": "_lastName",
          "type": "string"
        },
        {
          "internalType": "string",
          "name": "_gender",
          "type": "string"
        },
        {
          "internalType": "string",
          "name": "_vaccineName1",
          "type": "string"
        },
        {
          "internalType": "string",
          "name": "_dateGetVaccine1",
          "type": "string"
        },
        {
          "internalType": "string",
          "name": "_hospitalName1",
          "type": "string"
        },
        {
          "internalType": "string",
          "name": "_vaccineName2",
          "type": "string"
        },
        {
          "internalType": "string",
          "name": "_dateGetVaccine2",
          "type": "string"
        },
        {
          "internalType": "string",
          "name": "_hospitalName2",
          "type": "string"
        }
      ],
      "name": "addVaccine",
      "outputs": [],
      "payable": false,
      "stateMutability": "nonpayable",
      "type": "function"
    },
    {
      "constant": true,
      "inputs": [
        {
          "internalType": "uint256",
          "name": "_citizenId",
          "type": "uint256"
        }
      ],
      "name": "getVaccine",
      "outputs": [
        {
          "internalType": "bool",
          "name": "haveVaccine",
          "type": "bool"
        },
        {
          "internalType": "uint256",
          "name": "countVaccine",
          "type": "uint256"
        },
        {
          "internalType": "string",
          "name": "vaccineName1",
          "type": "string"
        },
        {
          "internalType": "string",
          "name": "dateGetVaccine1",
          "type": "string"
        },
        {
          "internalType": "string",
          "name": "hospitalName1",
          "type": "string"
        },
        {
          "internalType": "string",
          "name": "vaccineName2",
          "type": "string"
        },
        {
          "internalType": "string",
          "name": "dateGetVaccine2",
          "type": "string"
        },
        {
          "internalType": "string",
          "name": "hospitalName2",
          "type": "string"
        }
      ],
      "payable": false,
      "stateMutability": "view",
      "type": "function"
    }
  ],
  "bytecode": "0x608060405234801561001057600080fd5b506115e5806100206000396000f3fe608060405234801561001057600080fd5b50600436106100365760003560e01c806308e260121461003b578063762d9abb146105b9575b600080fd5b6105b7600480360361014081101561005257600080fd5b81019080803590602001909291908035906020019064010000000081111561007957600080fd5b82018360208201111561008b57600080fd5b803590602001918460018302840111640100000000831117156100ad57600080fd5b91908080601f016020809104026020016040519081016040528093929190818152602001838380828437600081840152601f19601f8201169050808301925050505050505091929192908035906020019064010000000081111561011057600080fd5b82018360208201111561012257600080fd5b8035906020019184600183028401116401000000008311171561014457600080fd5b91908080601f016020809104026020016040519081016040528093929190818152602001838380828437600081840152601f19601f820116905080830192505050505050509192919290803590602001906401000000008111156101a757600080fd5b8201836020820111156101b957600080fd5b803590602001918460018302840111640100000000831117156101db57600080fd5b91908080601f016020809104026020016040519081016040528093929190818152602001838380828437600081840152601f19601f8201169050808301925050505050505091929192908035906020019064010000000081111561023e57600080fd5b82018360208201111561025057600080fd5b8035906020019184600183028401116401000000008311171561027257600080fd5b91908080601f016020809104026020016040519081016040528093929190818152602001838380828437600081840152601f19601f820116905080830192505050505050509192919290803590602001906401000000008111156102d557600080fd5b8201836020820111156102e757600080fd5b8035906020019184600183028401116401000000008311171561030957600080fd5b91908080601f016020809104026020016040519081016040528093929190818152602001838380828437600081840152601f19601f8201169050808301925050505050505091929192908035906020019064010000000081111561036c57600080fd5b82018360208201111561037e57600080fd5b803590602001918460018302840111640100000000831117156103a057600080fd5b91908080601f016020809104026020016040519081016040528093929190818152602001838380828437600081840152601f19601f8201169050808301925050505050505091929192908035906020019064010000000081111561040357600080fd5b82018360208201111561041557600080fd5b8035906020019184600183028401116401000000008311171561043757600080fd5b91908080601f016020809104026020016040519081016040528093929190818152602001838380828437600081840152601f19601f8201169050808301925050505050505091929192908035906020019064010000000081111561049a57600080fd5b8201836020820111156104ac57600080fd5b803590602001918460018302840111640100000000831117156104ce57600080fd5b91908080601f016020809104026020016040519081016040528093929190818152602001838380828437600081840152601f19601f8201169050808301925050505050505091929192908035906020019064010000000081111561053157600080fd5b82018360208201111561054357600080fd5b8035906020019184600183028401116401000000008311171561056557600080fd5b91908080601f016020809104026020016040519081016040528093929190818152602001838380828437600081840152601f19601f82011690508083019250505050505050919291929050505061088e565b005b6105e5600480360360208110156105cf57600080fd5b8101908080359060200190929190505050610d52565b604051808915151515815260200188815260200180602001806020018060200180602001806020018060200187810387528d818151815260200191508051906020019080838360005b8381101561064957808201518184015260208101905061062e565b50505050905090810190601f1680156106765780820380516001836020036101000a031916815260200191505b5087810386528c818151815260200191508051906020019080838360005b838110156106af578082015181840152602081019050610694565b50505050905090810190601f1680156106dc5780820380516001836020036101000a031916815260200191505b5087810385528b818151815260200191508051906020019080838360005b838110156107155780820151818401526020810190506106fa565b50505050905090810190601f1680156107425780820380516001836020036101000a031916815260200191505b5087810384528a818151815260200191508051906020019080838360005b8381101561077b578082015181840152602081019050610760565b50505050905090810190601f1680156107a85780820380516001836020036101000a031916815260200191505b50878103835289818151815260200191508051906020019080838360005b838110156107e15780820151818401526020810190506107c6565b50505050905090810190601f16801561080e5780820380516001836020036101000a031916815260200191505b50878103825288818151815260200191508051906020019080838360005b8381101561084757808201518184015260208101905061082c565b50505050905090810190601f1680156108745780820380516001836020036101000a031916815260200191505b509e50505050505050505050505050505060405180910390f35b6040518061014001604052808a81526020018981526020018881526020018781526020018681526020018581526020018481526020018381526020018281526020013373ffffffffffffffffffffffffffffffffffffffff168152506000808c815260200190815260200160002060008201518160000190805190602001906109189291906114a2565b5060208201518160010190805190602001906109359291906114a2565b5060408201518160020190805190602001906109529291906114a2565b50606082015181600301908051906020019061096f9291906114a2565b50608082015181600401908051906020019061098c9291906114a2565b5060a08201518160050190805190602001906109a99291906114a2565b5060c08201518160060190805190602001906109c69291906114a2565b5060e08201518160070190805190602001906109e39291906114a2565b50610100820151816008019080519060200190610a019291906114a2565b506101208201518160090160006101000a81548173ffffffffffffffffffffffffffffffffffffffff021916908373ffffffffffffffffffffffffffffffffffffffff1602179055509050507f7a251a2f5627fee9f9f9acda6f5f70957013134cd121ccd6c5269ddb9e86d2b68a87878787878733604051808981526020018060200180602001806020018060200180602001806020018873ffffffffffffffffffffffffffffffffffffffff1673ffffffffffffffffffffffffffffffffffffffff16815260200187810387528e818151815260200191508051906020019080838360005b83811015610b02578082015181840152602081019050610ae7565b50505050905090810190601f168015610b2f5780820380516001836020036101000a031916815260200191505b5087810386528d818151815260200191508051906020019080838360005b83811015610b68578082015181840152602081019050610b4d565b50505050905090810190601f168015610b955780820380516001836020036101000a031916815260200191505b5087810385528c818151815260200191508051906020019080838360005b83811015610bce578082015181840152602081019050610bb3565b50505050905090810190601f168015610bfb5780820380516001836020036101000a031916815260200191505b5087810384528b818151815260200191508051906020019080838360005b83811015610c34578082015181840152602081019050610c19565b50505050905090810190601f168015610c615780820380516001836020036101000a031916815260200191505b5087810383528a818151815260200191508051906020019080838360005b83811015610c9a578082015181840152602081019050610c7f565b50505050905090810190601f168015610cc75780820380516001836020036101000a031916815260200191505b50878103825289818151815260200191508051906020019080838360005b83811015610d00578082015181840152602081019050610ce5565b50505050905090810190601f168015610d2d5780820380516001836020036101000a031916815260200191505b509e50505050505050505050505050505060405180910390a150505050505050505050565b600080606080606080606080610d66611522565b6000808b815260200190815260200160002060405180610140016040529081600082018054600181600116156101000203166002900480601f016020809104026020016040519081016040528092919081815260200182805460018160011615610100020316600290048015610e1d5780601f10610df257610100808354040283529160200191610e1d565b820191906000526020600020905b815481529060010190602001808311610e0057829003601f168201915b50505050508152602001600182018054600181600116156101000203166002900480601f016020809104026020016040519081016040528092919081815260200182805460018160011615610100020316600290048015610ebf5780601f10610e9457610100808354040283529160200191610ebf565b820191906000526020600020905b815481529060010190602001808311610ea257829003601f168201915b50505050508152602001600282018054600181600116156101000203166002900480601f016020809104026020016040519081016040528092919081815260200182805460018160011615610100020316600290048015610f615780601f10610f3657610100808354040283529160200191610f61565b820191906000526020600020905b815481529060010190602001808311610f4457829003601f168201915b50505050508152602001600382018054600181600116156101000203166002900480601f0160208091040260200160405190810160405280929190818152602001828054600181600116156101000203166002900480156110035780601f10610fd857610100808354040283529160200191611003565b820191906000526020600020905b815481529060010190602001808311610fe657829003601f168201915b50505050508152602001600482018054600181600116156101000203166002900480601f0160208091040260200160405190810160405280929190818152602001828054600181600116156101000203166002900480156110a55780601f1061107a576101008083540402835291602001916110a5565b820191906000526020600020905b81548152906001019060200180831161108857829003601f168201915b50505050508152602001600582018054600181600116156101000203166002900480601f0160208091040260200160405190810160405280929190818152602001828054600181600116156101000203166002900480156111475780601f1061111c57610100808354040283529160200191611147565b820191906000526020600020905b81548152906001019060200180831161112a57829003601f168201915b50505050508152602001600682018054600181600116156101000203166002900480601f0160208091040260200160405190810160405280929190818152602001828054600181600116156101000203166002900480156111e95780601f106111be576101008083540402835291602001916111e9565b820191906000526020600020905b8154815290600101906020018083116111cc57829003601f168201915b50505050508152602001600782018054600181600116156101000203166002900480601f01602080910402602001604051908101604052809291908181526020018280546001816001161561010002031660029004801561128b5780601f106112605761010080835404028352916020019161128b565b820191906000526020600020905b81548152906001019060200180831161126e57829003601f168201915b50505050508152602001600882018054600181600116156101000203166002900480601f01602080910402602001604051908101604052809291908181526020018280546001816001161561010002031660029004801561132d5780601f106113025761010080835404028352916020019161132d565b820191906000526020600020905b81548152906001019060200180831161131057829003601f168201915b505050505081526020016009820160009054906101000a900473ffffffffffffffffffffffffffffffffffffffff1673ffffffffffffffffffffffffffffffffffffffff1673ffffffffffffffffffffffffffffffffffffffff1681525050905060008160800151511461144a5760008160e0015151146113f95760019850886002985088826060015198508883608001519850888460a001519850888560c001519850888660e001519850888761010001519850889850985098509850985098509850985050611497565b60019850886001985088826060015198508883608001519850888460a001519850888560c001519850888660e001519850888761010001519850889850985098509850985098509850985050611497565b60009850886000985088826060015198508883608001519850888460a001519850888560c001519850888660e0015198508887610100015198508898509850985098509850985098509850505b919395975091939597565b828054600181600116156101000203166002900490600052602060002090601f016020900481019282601f106114e357805160ff1916838001178555611511565b82800160010185558215611511579182015b828111156115105782518255916020019190600101906114f5565b5b50905061151e919061158b565b5090565b604051806101400160405280606081526020016060815260200160608152602001606081526020016060815260200160608152602001606081526020016060815260200160608152602001600073ffffffffffffffffffffffffffffffffffffffff1681525090565b6115ad91905b808211156115a9576000816000905550600101611591565b5090565b9056fea265627a7a72315820a8b572f61175a9842062c940126bdfaa713bf16ac13ec09fb6a006c41a25871f64736f6c63430005100032",
  "source": "// SPDX-License-Identifier: MIT\npragma solidity >=0.4.22 <0.9.0;\n\ncontract Vacination {\n    struct Person {\n        string firstName;\n        string lastName;\n        string gender;\n        string vaccineName1;\n        string dateGetVaccine1;\n        string hospitalName1;\n        string vaccineName2;\n        string dateGetVaccine2;\n        string hospitalName2;\n        address sender;\n    }\n    event AddedVaccine(\n        uint256 citizenId,\n        string vaccineName1,\n        string dateGetVaccine1,\n        string hospitalName1,\n        string vaccineName2,\n        string dateGetVaccine2,\n        string hospitalName2,\n        address sender\n    );\n    mapping(uint256 => Person) persons;\n\n    function addVaccine(\n        uint256 _citizenId,\n        string memory _firstName,\n        string memory _lastName,\n        string memory _gender,\n        string memory _vaccineName1,\n        string memory _dateGetVaccine1,\n        string memory _hospitalName1,\n        string memory _vaccineName2,\n        string memory _dateGetVaccine2,\n        string memory _hospitalName2\n    ) public {\n        persons[_citizenId] = Person({\n            firstName: _firstName,\n            lastName: _lastName,\n            gender: _gender,\n            vaccineName1: _vaccineName1,\n            dateGetVaccine1: _dateGetVaccine1,\n            hospitalName1: _hospitalName1,\n            vaccineName2: _vaccineName2,\n            dateGetVaccine2: _dateGetVaccine2,\n            hospitalName2: _hospitalName2,\n            sender: msg.sender\n        });\n        emit AddedVaccine(\n            _citizenId,\n            _vaccineName1,\n            _dateGetVaccine1,\n            _hospitalName1,\n            _vaccineName2,\n            _dateGetVaccine2,\n            _hospitalName2,\n            msg.sender\n        );\n    }\n\n    \n    function getVaccine(uint256 _citizenId)\n        public\n        view\n        returns (\n            bool haveVaccine,\n            uint256 countVaccine,\n            string memory vaccineName1,\n            string memory dateGetVaccine1,\n            string memory hospitalName1,\n            string memory vaccineName2,\n            string memory dateGetVaccine2,\n            string memory hospitalName2\n        )\n    {\n        Person memory person = persons[_citizenId];\n        if (bytes(person.dateGetVaccine1).length != 0) {\n            if (bytes(person.dateGetVaccine2).length != 0) {\n                return (\n                    haveVaccine = true,\n                    countVaccine = 2,\n                    vaccineName1 = person.vaccineName1,\n                    dateGetVaccine1 = person.dateGetVaccine1,\n                    hospitalName1 = person.hospitalName1,\n                    vaccineName2 = person.vaccineName2,\n                    dateGetVaccine2 = person.dateGetVaccine2,\n                    hospitalName2 = person.hospitalName2\n                );\n            } else {\n                return (\n                    haveVaccine = true,\n                    countVaccine = 1,\n                    vaccineName1 = person.vaccineName1,\n                    dateGetVaccine1 = person.dateGetVaccine1,\n                    hospitalName1 = person.hospitalName1,\n                    vaccineName2 = person.vaccineName2,\n                    dateGetVaccine2 = person.dateGetVaccine2,\n                    hospitalName2 = person.hospitalName2\n                );\n            }\n        } else {\n            return (\n                haveVaccine = false,\n                countVaccine = 0,\n                vaccineName1 = person.vaccineName1,\n                dateGetVaccine1 = person.dateGetVaccine1,\n                hospitalName1 = person.hospitalName1,\n                vaccineName2 = person.vaccineName2,\n                dateGetVaccine2 = person.dateGetVaccine2,\n                hospitalName2 = person.hospitalName2\n            );\n        }\n    }\n}\n",
  "sourcePath": "/Users/glajaja/voyagesfatyhospitalback-end/blockchain_contract/contracts/Vacination.sol",
  "compiler": {
    "name": "solc",
    "version": "0.5.16+commit.9c3226ce.Emscripten.clang"
  },
  "schemaVersion": "3.4.3",
  "updatedAt": "2021-11-19T05:59:18.651Z",
  "networkType": "ethereum",
  "devdoc": {
    "methods": {}
  },
  "userdoc": {
    "methods": {}
  }
}